:100000000C9424010C9441010C9441010C94410185
:100010000C9441010C9441010C9441010C94410158
:100020000C9441010C9441010C9441010C94410148
:100030000C9441010C9441010C9441010C94410138
:100040000C9441010C9441010C9441010C94410128
:100050000C9441010C9441010C9441010C94410118
:100060000C9441010C944101000000000000005F6D
:1000700000000007000700147F147F14242A7F2A41
:10008000122313086462364955225000050300000C
:10009000001C2241000041221C0014083E081408E4
:1000A000083E0808005030000008080808080060F2
:1000B00060000020100804023E5149453E00427F86
:1000C000400042615149462141454B311814127F8D
:1000D0001027454545393C4A494930017109050316
:1000E0003649494936064949291E0036360000007E
:1000F0005636000008142241001414141414004150
:100100002214080201510906324979413E7E11113B
:10011000117E7F494949363E414141227F4141227A
:100120001C7F494949417F090909013E4149497AF2
:100130007F0808087F00417F41002040413F017F48
:10014000081422417F404040407F020C027F7F0420
:1001500008107F3E4141413E7F090909063E415159
:10016000215E7F09192946464949493101017F012C
:10017000013F4040403F1F2040201F3F4038403F4C
:100180006314081463070870080761514945430068
:100190007F41410002040810200041417F00040219
:1001A0000102044040404040000102040020545439
:1001B00054787F48444438384444442038444448C0
:1001C0007F3854545418087E0901020C5252523E92
:1001D0007F0804047800447D40002040443D007FB7
:1001E0001028440000417F40007C041804787C08FB
:1001F00004047838444444387C1414140808141453
:10020000187C7C080404084854545420043F44409B
:10021000203C4040207C1C2040201C3C4030403C86
:1002200044281028440C5050503C4464544C440022
:100230000836410000007F00000041360800100829
:10024000081008000000000011241FBECFEFD8E006
:10025000DEBFCDBF11E0A0E0B1E0E2E3F0E102C01B
:1002600005900D92AA3EB107D9F724E0AAEEB1E0BD
:1002700001C01D92A933B207E1F70E948B050C94CF
:1002800017080C9400004D9909C090E080E0089593
:100290008FE39CE90197F1F700C000004D99F8CF7A
:1002A00081E090E008954E9909C090E080E00895C3
:1002B0008FE39CE90197F1F700C000004E99F8CF59
:1002C00081E090E008954F9909C090E080E00895A2
:1002D0008FE39CE90197F1F700C000004F99F8CF38
:1002E00081E090E00895189909C090E080E00895B9
:1002F0008FE39CE90197F1F700C000001899F8CF4F
:1003000081E090E008957F928F929F92AF92BF928A
:10031000CF92DF92EF92FF920F931F93CF93DF93D1
:10032000CDB7DEB728970FB6F894DEBF0FBECDBFAE
:100330000E94FD0289E0C82E81E0D82E712CB12CDC
:10034000A12C672D80E00E94E7034601F12CE12CEF
:10035000F40181914F01811105C061E082E691E0D5
:100360000E94D703F40182918F01813029F461E06A
:1003700084E691E00E94D703F8018081823029F45D
:1003800061E086E691E00E94D703F8018081833026
:1003900029F461E088E691E00E94D703F8018081AA
:1003A000843029F461E088EE91E00E94D703F801DF
:1003B00080818530E9F4F5E0AF16B104C9F4E114A9
:1003C000F104B1F488E0EAE6F1E0DE011196019073
:1003D0000D928A95E1F76091F0017091F101CE01E3
:1003E00001960E940C0860E0CE0101960E94D7039E
:1003F0008FEFE81AF80AEEE0EE16F10409F0A8CF44
:10040000FFEFAF1ABF0A89E0780EEEE0CE0ED11CE6
:10041000F6E37F1296CF28960FB6F894DEBF0FBE94
:10042000CDBFDF91CF911F910F91FF90EF90DF90A3
:10043000CF90BF90AF909F908F907F900C94EC03E3
:1004400089E091E044E0FC012EE030E0519153302E
:1004500019F4DF0111974C9321503109B9F70E9629
:1004600021E08D35920779F7809102019091030187
:100470002EE0289FF001299FF00D1124E75FFE4F29
:100480008091F4019091F501E80FF91F8091060128
:10049000808308950E94FD026FE08DE00E94E703D3
:1004A00061E082E791E00E94D7030C94EC03809115
:1004B000EC019091ED0161E0019771F48EE891E01B
:1004C0000E94D70361E083EA91E00E94D70361E0D4
:1004D00082EB91E00C94D70383EC91E00E94D70368
:1004E00061E083EA91E00E94D70361E089ED91E049
:1004F000F1CF0E94FD0282E090E09093030180938F
:1005000002011092F5011092F4010E9420020E9453
:1005100083011092F1011092F001809100019091FD
:100520000101019729F09093010180930001089542
:1005300083E090E0F8CF29986623A9F02B9A27E072
:1005400030E090E0AC01022E02C0559547950A9428
:10055000E2F740FF0AC02C9A2D9A2D9821503109BC
:1005600088F7299A08952B98EACF2C98F5CF60E068
:100570000C949B02CF93DF93219A229A239A249A78
:10058000259A2A9A299A8FE39CE90197F1F700C0EE
:1005900000002A989FEF2AE683E091502040804097
:1005A000E1F700C000002A9A299881E20E94B70270
:1005B00083E10E94B70286E00E94B70282EC0E94AB
:1005C000B70280E20E94B70289E00E94B70280E889
:1005D0000E94B70280E40E94B702C8EFD1E061E058
:1005E00080E00E949B022197D1F788E00E94B70229
:1005F0008CE0DF91CF910C94B70280E80E94B702A3
:1006000080E40E94B7021092370410923804EFE39E
:10061000F2E088EF91E0DF019C011D922150304013
:10062000E1F70895811103C084E20C94B70280E2DF
:10063000FCCF962F969596959695E82FF0E084E559
:10064000989FE00DF11D1124E15CFD4F2081677042
:1006500081E090E001C0880F6A95EAF7442319F021
:10066000282B2083089580952823FBCF8F929F927B
:10067000AF92BF92DF92EF92FF920F931F93CF93AF
:10068000DF9300D000D00F92CDB7DEB7E82FF62E63
:1006900080320CF44DC0E05285E0E802B001112434
:1006A00068597F4F45E050E0CE0101960E94030853
:1006B0008E010F5F1F4F95E0F99E5001112487E0D6
:1006C000F89E40011124E12CEA141B040CF463C0D1
:1006D000809137048F5F9F2D990F990F9F0D890F80
:1006E00080933704843558F0809138041092370491
:1006F0008F5F97E0F99E800D1124809338048091DC
:100700003804803320F010923704109238040F9090
:100710000F900F900F900F90DF91CF911F910F913D
:10072000FF90EF90DF90BF90AF909F908F900895D3
:10073000EE0FFF0BE150FE4F0081118101151105F5
:1007400009F0B9CF45E050E068E670E0ADCFED0DBF
:100750005E0D8E2D6F2D0E942D06D801A80FB11DA4
:100760002C9130E08D2D0E942D0602C035952795E5
:100770008A95E2F741E020FF40E06E2F852F0E942E
:100780001903D394E091380450913704D814190414
:10079000F4F2E39499CFD12CF5CFE82F803234F4E2
:1007A000EE0FFF0BE150FE4F7183608308951F939E
:1007B000CF93DF93162FEC018991811104C0DF9153
:1007C000CF911F910895612F0E943603F5CF80933A
:1007D0003704609338040895CF93DF9380E80E9434
:1007E000B70280E40E94B702CFE3D2E061E08991D2
:1007F0000E949B0284E0C733D807C1F7DF91CF91F5
:1008000008954F925F926F927F928F929F92AF92D4
:10081000BF92CF92DF92EF92FF92CF93DF93CDB74B
:10082000DEB762970FB6F894DEBF0FBECDBF8D87DF
:100830006987F22E481B550BCA01550FAA0BBB0B3B
:1008400089839A83AB83BC83BC01CD010E944E0790
:1008500069837A838B839C83AF2D4985A41BBB0B53
:10086000CD01BB0FAA0BBB0B8D839E83AF83B887D3
:10087000BC01CD010E944E076D837E838F839887D4
:10088000C980DA80EB80FC80E894F7F84B015C01CA
:10089000E894B7F8A5019401C701B6010E94FE07CC
:1008A00087FF02C075016401A701960169817A8101
:1008B0008B819C810E94AB0669837A838B839C83A6
:1008C0004B015C01A70196016D817E818F81988526
:1008D0000E94AB062B013C019D85892F90E0B0E082
:1008E000A0E089839A83AB83BC83BC01CD010E94C5
:1008F0004C0769837A838B839C839985892F90E049
:10090000B0E0A0E08D839E83AF83B887BC01CD01AA
:100910000E944C076D837E838F839887A1E0B0E0AF
:10092000BA8BA98B89899A89092E000CAA0BBB0B5B
:1009300089879A87AB87BC87BC01CD010E944E078F
:1009400069877A878B879C87A70196010E94A606F4
:100950001816ACF462960FB6F894DEBF0FBECDBF8A
:10096000DF91CF91FF90EF90DF90CF90BF90AF904D
:100970009F908F907F906F905F904F9008956D81C2
:100980007E818F8198850E941D0769877A878B8772
:100990009C8769817A818B819C810E941D076D876C
:1009A0007E878F87988B41E069858D850E9419032A
:1009B000A501940169817A818B819C810E943A060C
:1009C00069837A838B839C83A30192016D817E81ED
:1009D0008F8198850E943A066D837E838F839887E6
:1009E00089899A8901969A8B898B9CCF0F931F9343
:1009F000CF93DF93C82F162F042FD22F262F0E94BC
:100A000001042D2F402F612F802F0E9401042D2FD4
:100A10004C2F6D2F802F0E940104212F4C2F6D2F02
:100A20008C2FDF91CF911F910F910C9401047F9235
:100A30008F929F92AF92BF92CF92DF92EF92FF92EE
:100A40000F931F93CF93DF93D82EC62EC42FD0E0E1
:100A5000F12CE12C10E000E041E0AC2CA00E6A2D5E
:100A6000BC2EBD0C8B2D0E94190341E08C2E8C0CEA
:100A7000682D9D2C900E892D0E94190341E0682D50
:100A80007D2C701A872D0E94190341E06A2D8D2C50
:100A90008C1A882D0E94190341E0AC2CA01A6A2DF3
:100AA000882D0E94190341E08C2C8C1A682D872D0B
:100AB0000E94190341E0682D892D0E94190341E02D
:100AC0006A2D8B2D0E9419031E141F045CF00F5F0A
:100AD0001F4FC801880F991F0196E80EF91E1E14BA
:100AE0001F043CF42197CE01880F991F0196E81A44
:100AF000F90AC017D1070CF0AFCFDF91CF911F914A
:100B00000F91FF90EF90DF90CF90BF90AF909F90AC
:100B10008F907F900895529A539A549A209857989C
:100B2000569855980E94BA020E94FD026DE571E048
:100B300081E00E94CD03CEE00E945301019789F528
:100B40008091F4019091F50101972091020130917B
:100B50000301C29FF001C39FF00D1124E75FFE4F18
:100B6000E80FF91F20813FEF320F3230A8F021113A
:100B70000AC02091F0013091F1012F5F3F4F309377
:100B8000F1012093F0019093F5018093F4010E940C
:100B900020020E948301D0CF223071F60E94790298
:100BA000CBCF0E944301019741F5809102019091C2
:100BB00003010197C89FF001C99FF00D1124E75F61
:100BC000FE4F2091F4013091F501E20FF31F2081D7
:100BD0003FEF320F323000F321110AC02091F001B3
:100BE0003091F1012F5F3F4F3093F1012093F001DD
:100BF0009093030180930201CACF0E946301019781
:100C000009F58091F4019091F5010196209102017E
:100C100030910301C29FF001C39FF00D1124E75FE3
:100C2000FE4FE80FF91F20813FEF320F323008F4FA
:100C3000B3CF2111A8CF2091F0013091F101265FAF
:100C40003F4F9DCF0E947301019709F075CF8091AE
:100C50000201909103010196ADCF991B79E004C088
:100C6000991F961708F0961B881F7A95C9F78095EB
:100C700008955058BB27AA270E9451060C94C40718
:100C80000E94B60738F00E94BD0720F039F49F3F5C
:100C900019F426F40C94B3070EF4E095E7FB0C94DA
:100CA000AD07E92F0E94D50758F3BA1762077307FB
:100CB0008407950720F079F4A6F50C94F7070EF455
:100CC000E0950B2EBA2FA02D0B01B90190010C015C
:100CD000CA01A0011124FF27591B99F0593F50F474
:100CE000503E68F11A16F040A22F232F342F4427CC
:100CF000585FF3CF469537952795A795F0405395C4
:100D0000C9F77EF41F16BA0B620B730B840BBAF093
:100D10009150A1F0FF0FBB1F661F771F881FC2F7FE
:100D20000EC0BA0F621F731F841F48F48795779512
:100D30006795B795F7959E3F08F0B0CF9395880FCC
:100D400008F09927EE0F9795879508950E948907D7
:100D500008F481E008950E94BF060C94C4070E9425
:100D6000BD0758F00E94B60740F029F45F3F29F014
:100D70000C94AD0751110C94F8070C94B3070E9422
:100D8000D50768F39923B1F3552391F3951B550BC0
:100D9000BB27AA2762177307840738F09F5F5F4F4E
:100DA000220F331F441FAA1FA9F335D00E2E3AF08D
:100DB000E0E832D091505040E695001CCAF72BD0A5
:100DC000FE2F29D0660F771F881FBB1F26173707F6
:100DD0004807AB07B0E809F0BB0B802DBF01FF2728
:100DE00093585F4F3AF09E3F510578F00C94AD0751
:100DF0000C94F8075F3FE4F3983ED4F3869577951B
:100E00006795B795F7959F5FC9F7880F911D9695E0
:100E1000879597F90895E1E0660F771F881FBB1F3C
:100E2000621773078407BA0720F0621B730B840BE9
:100E3000BA0BEE1F88F7E09508950E94DD0788F051
:100E40009F5798F0B92F9927B751B0F0E1F0660F8E
:100E5000771F881F991F1AF0BA95C9F714C0B130CF
:100E600091F00E94F707B1E008950C94F707672FFF
:100E7000782F8827B85F39F0B93FCCF386957795FE
:100E80006795B395D9F73EF49095809570956195E7
:100E90007F4F8F4F9F4F0895E89409C097FB3EF412
:100EA00090958095709561957F4F8F4F9F4F9923B7
:100EB000A9F0F92F96E9BB279395F6958795779535
:100EC0006795B795F111F8CFFAF4BB0F11F460FFF5
:100ED0001BC06F5F7F4F8F4F9F4F16C0882311F04D
:100EE00096E911C0772321F09EE8872F762F05C061
:100EF000662371F096E8862F70E060E02AF09A95FC
:100F0000660F771F881FDAF7880F9695879597F9F0
:100F10000895990F0008550FAA0BE0E8FEEF16168A
:100F20001706E807F907C0F012161306E407F507DD
:100F300098F0621B730B840B950B39F40A2661F051
:100F4000232B242B252B21F408950A2609F4A140F4
:100F5000A6958FEF811D811D089597F99F6780E801
:100F600070E060E008959FEF80EC089500240A94FB
:100F70001616170618060906089500240A94121674
:100F80001306140605060895092E0394000C11F4A7
:100F9000882352F0BB0F40F4BF2B11F460FF04C054
:100FA0006F5F7F4F8F4F9F4F089557FD9058440FAD
:100FB000551F59F05F3F71F04795880F97FB991FB8
:100FC00061F09F3F79F08795089512161306140675
:100FD000551FF2CF4695F1DF08C016161706180602
:100FE000991FF1CF86957105610508940895E894DD
:100FF000BB2766277727CB0197F908950E948907B9
:1010000008F48FEF0895FB01DC0102C005900D92FA
:1010100041505040D8F70895FB01DC010D900020AD
:10102000E9F7119701900D920020E1F70895F894E7
:02103000FFCFF0
:101032000300020005040302010101010101010193
:101042000101010101010101000000010100000094
:10105200000000000100000100000000010000008B
:10106200000000010002000000000100000000007A
:10107200010101010101010101010101010101055A
:10108200050505050505050505050505051024E009
:1010920024102E002F002400400073636F7265201D
:1010A2003A00496E69636965206F206A6F676F2035
:1010B2004170657274616E646F2027572700566F06
:1010C20063C3AA20506572646575206F204A6F67FA
:1010D2006F2100506F6E747561C3A7C3A36F203A6E
:1010E200200054656D706F206465206A6F676F2001
:1010F2003A2000566F63C3AA2067616E686F75203D
:101102006F206A6F676F20210054656D706F2064D5
:0A11120065204A6F676F203A200045
:00000001FF
