:100000000C9424010C9441010C9441010C94410185
:100010000C9441010C9441010C9441010C94410158
:100020000C9441010C9441010C9441010C94410148
:100030000C9441010C9441010C9441010C94410138
:100040000C9441010C9441010C9441010C94410128
:100050000C9441010C9441010C9441010C94410118
:100060000C9441010C944101000000000000005F6D
:1000700000000007000700147F147F14242A7F2A41
:10008000122313086462364955225000050300000C
:10009000001C2241000041221C0014083E081408E4
:1000A000083E0808005030000008080808080060F2
:1000B00060000020100804023E5149453E00427F86
:1000C000400042615149462141454B311814127F8D
:1000D0001027454545393C4A494930017109050316
:1000E0003649494936064949291E0036360000007E
:1000F0005636000008142241001414141414004150
:100100002214080201510906324979413E7E11113B
:10011000117E7F494949363E414141227F4141227A
:100120001C7F494949417F090909013E4149497AF2
:100130007F0808087F00417F41002040413F017F48
:10014000081422417F404040407F020C027F7F0420
:1001500008107F3E4141413E7F090909063E415159
:10016000215E7F09192946464949493101017F012C
:10017000013F4040403F1F2040201F3F4038403F4C
:100180006314081463070870080761514945430068
:100190007F41410002040810200041417F00040219
:1001A0000102044040404040000102040020545439
:1001B00054787F48444438384444442038444448C0
:1001C0007F3854545418087E0901020C5252523E92
:1001D0007F0804047800447D40002040443D007FB7
:1001E0001028440000417F40007C041804787C08FB
:1001F00004047838444444387C1414140808141453
:10020000187C7C080404084854545420043F44409B
:10021000203C4040207C1C2040201C3C4030403C86
:1002200044281028440C5050503C4464544C440022
:100230000836410000007F00000041360800100829
:10024000081008000000000011241FBECFEFD8E006
:10025000DEBFCDBF11E0A0E0B1E0EEE9FEE002C0FC
:1002600005900D92AC35B107D9F723E0ACE5B1E0CC
:1002700001C01D92A33AB207E1F70E94F4040C9466
:100280004D070C9400004D9909C090E080E008955E
:100290008FE39CE90197F1F700C000004D99F8CF7A
:1002A00081E090E008954E9909C090E080E00895C3
:1002B0008FE39CE90197F1F700C000004E99F8CF59
:1002C00081E090E008954F9909C090E080E00895A2
:1002D0008FE39CE90197F1F700C000004F99F8CF38
:1002E00081E090E00895189909C090E080E00895B9
:1002F0008FE39CE90197F1F700C000001899F8CF4F
:1003000081E090E00895AF92BF92CF92DF92EF929A
:10031000FF921F93CF93DF930E94660296E0E92E2F
:1003200091E0F92E10E0612F80E00E945003570108
:100330008EE0C82ED12CF50181915F01811105C09D
:1003400061E081E591E00E944003E5018A918130FE
:1003500029F461E083E591E00E94400388818230C6
:1003600029F461E085E591E00E94400388818330B3
:1003700029F461E087E591E00E94400388818430A0
:1003800029F461E089E591E00E944003F1E0CF1A91
:10039000D10889F6175F8EE0E80EF11C1D3219F6C0
:1003A000DF91CF911F91FF90EF90DF90CF90BF90A2
:1003B000AF900C94550386E091E0FC012EE030E014
:1003C0004191433019F4DF0111971C9221503109FA
:1003D000B9F70E9621E08C34920779F780910001ED
:1003E000909101012EE0289FF001299FF00D11242A
:1003F000EA5FFE4F80915E0190915F01E80FF91F67
:10040000809103018083089529986623A9F02B9A8F
:1004100027E030E090E0AC01022E02C055954795F0
:100420000A94E2F740FF0AC02C9A2D9A2D98215089
:10043000310988F7299A08952B98EACF2C98F5CF9F
:1004400060E00C940402CF93DF93219A229A239ABE
:10045000249A259A2A9A299A8FE39CE90197F1F721
:1004600000C000002A989FEF2AE683E091502040C8
:100470008040E1F700C000002A9A299881E20E949A
:10048000200283E10E94200286E00E94200282EC8A
:100490000E94200280E20E94200289E00E94200245
:1004A00080E80E94200280E40E942002C8EFD1E090
:1004B00061E080E00E9404022197D1F788E00E9469
:1004C00020028CE0DF91CF910C94200280E80E9402
:1004D000200280E40E9420021092A1031092A20345
:1004E000E9EAF1E088EF91E0DF019C011D922150E3
:1004F0003040E1F70895811103C084E20C9420029A
:1005000080E2FCCF962F969596959695E82FF0E091
:1005100084E5989FE00DF11D1124E755FE4F2081E1
:10052000677081E090E001C0880F6A95EAF7442384
:1005300019F0282B2083089580952823FBCF8F92D4
:100540009F92AF92BF92DF92EF92FF920F931F9311
:10055000CF93DF9300D000D00F92CDB7DEB7E82F56
:10056000F62E80320CF44DC0E05285E0E802B00176
:10057000112468597F4F45E050E0CE0101960E945A
:1005800044078E010F5F1F4F95E0F99E5001112423
:1005900087E0F89E40011124E12CEA141B040CF4BE
:1005A00063C08091A1038F5F9F2D990F990F9F0DBD
:1005B000890F8093A103843558F08091A203109293
:1005C000A1038F5F97E0F99E800D11248093A20311
:1005D0008091A203803320F01092A1031092A20315
:1005E0000F900F900F900F900F90DF91CF911F9170
:1005F0000F91FF90EF90DF90BF90AF909F908F9002
:100600000895EE0FFF0BE759FE4F00811181011590
:10061000110509F0B9CF45E050E068E670E0ADCFD4
:10062000ED0D5E0D8E2D6F2D0E946E05D801A80F69
:10063000B11D2C9130E08D2D0E946E0502C03595C4
:1006400027958A95E2F741E020FF40E06E2F852F45
:100650000E948202D394E091A2035091A103D81486
:100660001904F4F2E39499CFD12CF5CFE82F80321E
:1006700034F4EE0FFF0BE759FE4F7183608308954A
:100680001F93CF93DF93162FEC018991811104C042
:10069000DF91CF911F910895612F0E949F02F5CFA6
:1006A0008093A1036093A2030895CF93DF9380E822
:1006B0000E94200280E40E942002C9EAD1E061E0A9
:1006C00089910E94040283E0C13AD807C1F7DF9103
:1006D000CF9108954F925F926F927F928F929F92E7
:1006E000AF92BF92CF92DF92EF92FF92CF93DF93C0
:1006F000CDB7DEB762970FB6F894DEBF0FBECDBFA1
:100700008D876987F22E481B550BCA01550FAA0B1E
:10071000BB0B89839A83AB83BC83BC01CD010E9450
:100720008F0669837A838B839C83AF2D4985A41BB5
:10073000BB0BCD01BB0FAA0BBB0B8D839E83AF837D
:10074000B887BC01CD010E948F066D837E838F83A5
:100750009887C980DA80EB80FC80E894F7F84B0139
:100760005C01E894B7F8A5019401C701B6010E94A5
:100770003F0787FF02C075016401A70196016981E7
:100780007A818B819C810E94EC0569837A838B83BB
:100790009C834B015C01A70196016D817E818F8155
:1007A00098850E94EC052B013C019D85892F90E0E6
:1007B000B0E0A0E089839A83AB83BC83BC01CD0108
:1007C0000E948D0669837A838B839C839985892F08
:1007D00090E0B0E0A0E08D839E83AF83B887BC013A
:1007E000CD010E948D066D837E838F839887A1E063
:1007F000B0E0BA8BA98B89899A89092E000CAA0BC3
:10080000BB0B89879A87AB87BC87BC01CD010E944F
:100810008F0669877A878B879C87A70196010E943C
:10082000E7051816ACF462960FB6F894DEBF0FBE5B
:10083000CDBFDF91CF91FF90EF90DF90CF90BF9031
:10084000AF909F908F907F906F905F904F900895A2
:100850006D817E818F8198850E945E0669877A8787
:100860008B879C8769817A818B819C810E945E063F
:100870006D877E878F87988B41E069858D850E9483
:100880008202A501940169817A818B819C810E94F9
:100890007B0569837A838B839C83A30192016D819D
:1008A0007E818F8198850E947B056D837E838F83F7
:1008B000988789899A8901969A8B898B9CCF0F9307
:1008C0001F93CF93DF93C82F162F042FD22F262FDD
:1008D0000E946A032D2F402F612F802F0E946A03F0
:1008E0002D2F4C2F6D2F802F0E946A03212F4C2F0C
:1008F0006D2F8C2FDF91CF911F910F910C946A0374
:100900007F928F929F92AF92BF92CF92DF92EF929F
:10091000FF920F931F93CF93DF93D82EC62EC42F31
:10092000D0E0F12CE12C10E000E041E0AC2CA00E76
:100930006A2DBC2EBD0C8B2D0E94820241E08C2EB4
:100940008C0C682D9D2C900E892D0E94820241E016
:10095000682D7D2C701A872D0E94820241E06A2D3D
:100960008D2C8C1A882D0E94820241E0AC2CA01A9A
:100970006A2D882D0E94820241E08C2C8C1A682DF1
:10098000872D0E94820241E0682D892D0E948202FB
:1009900041E06A2D8B2D0E9482021E141F045CF020
:1009A0000F5F1F4FC801880F991F0196E80EF91EAF
:1009B0001E141F043CF42197CE01880F991F019645
:1009C000E81AF90AC017D1070CF0AFCFDF91CF9129
:1009D0001F910F91FF90EF90DF90CF90BF90AF905D
:1009E0009F908F907F900895529A539A549A20988E
:1009F0005798569855980E9423020E9466026CE40C
:100A000071E081E00E9436030E945301019721F4B6
:100A10000E9466020E94830160915E0170915F01F5
:100A200080910001909101010E94DB010E948301ED
:100A3000CEE00E9453010197F1F480915E01909104
:100A40005F0101972091000130910101C29FF001E7
:100A5000C39FF00D1124EA5FFE4FE80FF91F2081BC
:100A6000213039F390935F0180935E010E94DB0196
:100A70000E948301DECF0E9443010197D1F480914F
:100A80000001909101010197C89FF001C99FF00DED
:100A90001124EA5FFE4F20915E0130915F01E20F69
:100AA000F31F2081213029F29093010180930001EE
:100AB000DDCF0E946301019731F480915E01909136
:100AC0005F010196BFCF0E947301019709F0B1CF7A
:100AD00080910001909101010196D6CF991B79E098
:100AE00004C0991F961708F0961B881F7A95C9F7BE
:100AF000809508955058BB27AA270E9492050C9410
:100B000005070E94F70638F00E94FE0620F039F42F
:100B10009F3F19F426F40C94F4060EF4E095E7FBDD
:100B20000C94EE06E92F0E94160758F3BA176207D5
:100B300073078407950720F079F4A6F50C9438071D
:100B40000EF4E0950B2EBA2FA02D0B01B9019001E8
:100B50000C01CA01A0011124FF27591B99F0593F2C
:100B600050F4503E68F11A16F040A22F232F342F74
:100B70004427585FF3CF469537952795A795F040C2
:100B80005395C9F77EF41F16BA0B620B730B840BD7
:100B9000BAF09150A1F0FF0FBB1F661F771F881F8F
:100BA000C2F70EC0BA0F621F731F841F48F48795E7
:100BB00077956795B795F7959E3F08F0B0CF9395D9
:100BC000880F08F09927EE0F9795879508950E9452
:100BD000CA0608F481E008950E9400060C940507F7
:100BE0000E94FE0658F00E94F70640F029F45F3F8D
:100BF00029F00C94EE0651110C9439070C94F4066C
:100C00000E94160768F39923B1F3552391F3951BBE
:100C1000550BBB27AA2762177307840738F09F5F1D
:100C20005F4F220F331F441FAA1FA9F335D00E2E8A
:100C30003AF0E0E832D091505040E695001CCAF7F7
:100C40002BD0FE2F29D0660F771F881FBB1F2617BA
:100C500037074807AB07B0E809F0BB0B802DBF0191
:100C6000FF2793585F4F3AF09E3F510578F00C9460
:100C7000EE060C9439075F3FE4F3983ED4F3869573
:100C800077956795B795F7959F5FC9F7880F911D81
:100C90009695879597F90895E1E0660F771F881F6D
:100CA000BB1F621773078407BA0720F0621B730B20
:100CB000840BBA0BEE1F88F7E09508950E941E077B
:100CC00088F09F5798F0B92F9927B751B0F0E1F00D
:100CD000660F771F881F991F1AF0BA95C9F714C0BD
:100CE000B13091F00E943807B1E008950C943807B4
:100CF000672F782F8827B85F39F0B93FCCF38695F6
:100D000077956795B395D9F73EF490958095709552
:100D100061957F4F8F4F9F4F0895E89409C097FBCF
:100D20003EF490958095709561957F4F8F4F9F4FC2
:100D30009923A9F0F92F96E9BB279395F695879506
:100D400077956795B795F111F8CFFAF4BB0F11F4C9
:100D500060FF1BC06F5F7F4F8F4F9F4F16C0882370
:100D600011F096E911C0772321F09EE8872F762FA6
:100D700005C0662371F096E8862F70E060E02AF0E7
:100D80009A95660F771F881FDAF7880F96958795D3
:100D900097F90895990F0008550FAA0BE0E8FEEFA8
:100DA00016161706E807F907C0F012161306E4072F
:100DB000F50798F0621B730B840B950B39F40A2628
:100DC00061F0232B242B252B21F408950A2609F406
:100DD000A140A6958FEF811D811D089597F99F670A
:100DE00080E870E060E008959FEF80EC08950024B3
:100DF0000A941616170618060906089500240A9480
:100E000012161306140605060895092E0394000C05
:100E100011F4882352F0BB0F40F4BF2B11F460FF94
:100E200004C06F5F7F4F8F4F9F4F089557FD9058BD
:100E3000440F551F59F05F3F71F04795880F97FB9E
:100E4000991F61F09F3F79F0879508951216130658
:100E50001406551FF2CF4695F1DF08C01616170687
:100E60001806991FF1CF86957105610508940895BC
:100E7000E894BB2766277727CB0197F908950E944E
:100E8000CA0608F48FEF0895FB01DC0102C005904B
:0E0E90000D9241505040D8F70895F894FFCFCE
:100E9E00020004030201010101010101010101012E
:100EAE00010101010100000001010000000101012A
:100EBE00010100000100000000010000010101011C
:100ECE000100020000000001000101010101010109
:100EDE000101010101010101010101011024E024C0
:0C0EEE001020002F00240040002C000009
:00000001FF
