:100000000C9424010C9441010C9441010C94410185
:100010000C9441010C9441010C9441010C94410158
:100020000C9441010C9441010C9441010C94410148
:100030000C9441010C9441010C9441010C94410138
:100040000C9441010C9441010C9441010C94410128
:100050000C9441010C9441010C9441010C94410118
:100060000C9441010C944101000000000000005F6D
:1000700000000007000700147F147F14242A7F2A41
:10008000122313086462364955225000050300000C
:10009000001C2241000041221C0014083E081408E4
:1000A000083E0808005030000008080808080060F2
:1000B00060000020100804023E5149453E00427F86
:1000C000400042615149462141454B311814127F8D
:1000D0001027454545393C4A494930017109050316
:1000E0003649494936064949291E0036360000007E
:1000F0005636000008142241001414141414004150
:100100002214080201510906324979413E7E11113B
:10011000117E7F494949363E414141227F4141227A
:100120001C7F494949417F090909013E4149497AF2
:100130007F0808087F00417F41002040413F017F48
:10014000081422417F404040407F020C027F7F0420
:1001500008107F3E4141413E7F090909063E415159
:10016000215E7F09192946464949493101017F012C
:10017000013F4040403F1F2040201F3F4038403F4C
:100180006314081463070870080761514945430068
:100190007F41410002040810200041417F00040219
:1001A0000102044040404040000102040020545439
:1001B00054787F48444438384444442038444448C0
:1001C0007F3854545418087E0901020C5252523E92
:1001D0007F0804047800447D40002040443D007FB7
:1001E0001028440000417F40007C041804787C08FB
:1001F00004047838444444387C1414140808141453
:10020000187C7C080404084854545420043F44409B
:10021000203C4040207C1C2040201C3C4030403C86
:1002200044281028440C5050503C4464544C440022
:100230000836410000007F00000041360800100829
:10024000081008000000000011241FBECFEFD8E006
:10025000DEBFCDBF11E0A0E0B1E0E4E1F8E002C014
:1002600005900D92A436B107D9F723E0A4E6B1E0DA
:1002700001C01D92A93AB207E1F70E9477030C94DE
:1002800008040C9400004D9909C090E080E00895A6
:100290008FE39CE90197F1F700C000004D99F8CF7A
:1002A00081E090E008954E9909C090E080E00895C3
:1002B0008FE39CE90197F1F700C000004E99F8CF59
:1002C00081E090E008954F9909C090E080E00895A2
:1002D0008FE39CE90197F1F700C000004F99F8CF38
:1002E00081E090E00895189909C090E080E00895B9
:1002F0008FE39CE90197F1F700C000001899F8CF4F
:1003000081E090E00895AF92BF92CF92DF92EF929A
:10031000FF921F93CF93DF930E94730296E0E92E22
:1003200091E0F92E10E0612F80E00E945D035701FB
:100330008AE0C82ED12CF50181915F01811105C0A1
:1003400061E08DE391E00E944D03E5018A918130E7
:1003500029F461E08FE391E00E944D0388818230AF
:1003600029F461E081E491E00E944D0388818330AB
:1003700029F461E083E491E00E944D038881843098
:1003800029F461E085E491E00E944D03F1E0CF1A89
:10039000D10889F6175F8AE0E80EF11C1D3219F6C4
:1003A000DF91CF911F91FF90EF90DF90CF90BF90A2
:1003B000AF900C94620386E091E0FC012AE030E00B
:1003C0004191433019F4DF0111971C9221503109FA
:1003D000B9F70A9621E08833920779F780910001F6
:1003E000909101012AE0289FF001299FF00D11242E
:1003F000EA5FFE4F8091680190916901E80FF91F53
:1004000080910301808308950E9473026FE08DE064
:100410000E945D0361E087E491E00E944D030C942B
:10042000620329986623A9F02B9A27E030E090E038
:10043000AC01022E02C0559547950A94E2F740FFA1
:100440000AC02C9A2D9A2D982150310988F7299AA3
:1004500008952B98EACF2C98F5CF60E00C94110208
:10046000CF93DF93219A229A239A249A259A2A9A43
:10047000299A8FE39CE90197F1F700C000002A98C0
:100480009FEF2AE683E0915020408040E1F700C0D2
:1004900000002A9A299881E20E942D0283E10E949D
:1004A0002D0286E00E942D0282EC0E942D0280E245
:1004B0000E942D0289E00E942D0280E80E942D02F8
:1004C00080E40E942D02C8EFD1E061E080E00E944C
:1004D00011022197D1F788E00E942D028CE0DF9174
:1004E000CF910C942D0280E80E942D0280E40E949E
:1004F0002D021092A7031092A803EFEAF1E088EF13
:1005000091E0DF019C011D9221503040E1F70895F8
:10051000811103C084E20C942D0280E2FCCF962F5F
:10052000969596959695E82FF0E084E5989FE00DD6
:10053000F11D1124E155FE4F2081677081E090E0AC
:1005400001C0880F6A95EAF7442319F0282B20830D
:10055000089580952823FBCF8F929F92AF92BF92F0
:10056000DF92EF92FF920F931F93CF93DF9300D010
:1005700000D00F92CDB7DEB7E82FF62E80320CF404
:100580004DC0E05285E0E802B001112468597F4F68
:1005900045E050E0CE0101960E94FF038E010F5FFF
:1005A0001F4F95E0F99E5001112487E0F89E40010D
:1005B0001124E12CEA141B040CF463C08091A703FE
:1005C0008F5F9F2D990F990F9F0D890F8093A70320
:1005D000843558F08091A8031092A7038F5F97E0AD
:1005E000F99E800D11248093A8038091A803803385
:1005F00020F01092A7031092A8030F900F900F9075
:100600000F900F90DF91CF911F910F91FF90EF907E
:10061000DF90BF90AF909F908F900895EE0FFF0BEB
:10062000E159FE4F008111810115110509F0B9CF83
:1006300045E050E068E670E0ADCFED0D5E0D8E2D2B
:100640006F2D0E94F303D801A80FB11D2C9130E04B
:100650008D2D0E94F30302C0359527958A95E2F708
:1006600041E020FF40E06E2F852F0E948F02D3943F
:10067000E091A8035091A703D8141904F4F2E3946D
:1006800099CFD12CF5CFE82F803234F4EE0FFF0B49
:10069000E159FE4F7183608308951F93CF93DF93D9
:1006A000162FEC018991811104C0DF91CF911F9128
:1006B0000895612F0E94AC02F5CF8093A703609349
:1006C000A8030895CF93DF9380E80E942D0280E471
:1006D0000E942D02CFEAD1E061E089910E941102CF
:1006E00083E0C73AD807C1F7DF91CF910895529AB6
:1006F000539A549A20985798569855980E943002C9
:100700000E94730268E371E081E00E9443030E944B
:1007100004020E945301019721F40E9473020E9477
:10072000830160916801709169018091000190914D
:1007300001010E94DB010E948301CAE00E94530173
:100740000197F1F4809168019091690101972091DE
:10075000000130910101C29FF001C39FF00D1124EF
:10076000EA5FFE4FE80FF91F2081213039F39093A3
:100770006901809368010E94DB010E948301DECF42
:100780000E9443010197D1F48091000190910101F1
:100790000197C89FF001C99FF00D1124EA5FFE4F39
:1007A0002091680130916901E20FF31F208121300F
:1007B00029F29093010180930001DDCF0E94630133
:1007C000019731F480916801909169010196BFCF42
:1007D0000E947301019709F0B1CF809100019091BF
:1007E00001010196D6CF991B79E004C0991F961795
:1007F00008F0961B881F7A95C9F780950895FB012C
:10080000DC0102C005900D9241505040D8F7089588
:04081000F894FFCF8A
:1008140002000403020101010101010101010101BE
:1008240001000000010100000001000001000000BF
:1008340000010000010002000000000100010101AC
:1008440001010101010101011024E0241020002F05
:1008540000240040002C00496E69636965206F2004
:100864006A6F676F204170657274616E646F2027D0
:040874005727000002
:00000001FF
