:100000000C9424010C9441010C9441010C94410185
:100010000C9441010C9441010C9441010C94410158
:100020000C9441010C9441010C9441010C94410148
:100030000C9441010C9441010C9441010C94410138
:100040000C9441010C9441010C9441010C94410128
:100050000C9441010C9441010C9441010C94410118
:100060000C9441010C944101000000000000005F6D
:1000700000000007000700147F147F14242A7F2A41
:10008000122313086462364955225000050300000C
:10009000001C2241000041221C0014083E081408E4
:1000A000083E0808005030000008080808080060F2
:1000B00060000020100804023E5149453E00427F86
:1000C000400042615149462141454B311814127F8D
:1000D0001027454545393C4A494930017109050316
:1000E0003649494936064949291E0036360000007E
:1000F0005636000008142241001414141414004150
:100100002214080201510906324979413E7E11113B
:10011000117E7F494949363E414141227F4141227A
:100120001C7F494949417F090909013E4149497AF2
:100130007F0808087F00417F41002040413F017F48
:10014000081422417F404040407F020C027F7F0420
:1001500008107F3E4141413E7F090909063E415159
:10016000215E7F09192946464949493101017F012C
:10017000013F4040403F1F2040201F3F4038403F4C
:100180006314081463070870080761514945430068
:100190007F41410002040810200041417F00040219
:1001A0000102044040404040000102040020545439
:1001B00054787F48444438384444442038444448C0
:1001C0007F3854545418087E0901020C5252523E92
:1001D0007F0804047800447D40002040443D007FB7
:1001E0001028440000417F40007C041804787C08FB
:1001F00004047838444444387C1414140808141453
:10020000187C7C080404084854545420043F44409B
:10021000203C4040207C1C2040201C3C4030403C86
:1002200044281028440C5050503C4464544C440022
:100230000836410000007F00000041360800100829
:10024000081008000000000011241FBECFEFD8E006
:10025000DEBFCDBF11E0A0E0B1E0EAEEF7E002C002
:1002600005900D92A834B107D9F723E0A8E4B1E0D6
:1002700001C01D92AD38B207E1F70E946A030C94E9
:10028000F3030C9400004D9909C090E080E00895BC
:100290008FE39CE90197F1F700C000004D99F8CF7A
:1002A00081E090E008954E9909C090E080E00895C3
:1002B0008FE39CE90197F1F700C000004E99F8CF59
:1002C00081E090E008954F9909C090E080E00895A2
:1002D0008FE39CE90197F1F700C000004F99F8CF38
:1002E00081E090E00895189909C090E080E00895B9
:1002F0008FE39CE90197F1F700C000001899F8CF4F
:1003000081E090E00895AF92BF92CF92DF92EF929A
:10031000FF921F93CF93DF930E94660296E0E92E2F
:1003200091E0F92E10E0612F80E00E945003570108
:100330008AE0C82ED12CF50181915F01811105C0A1
:1003400061E08DE391E00E944003E5018A918130F4
:1003500029F461E08FE391E00E94400388818230BC
:1003600029F461E081E491E00E94400388818330B8
:1003700029F461E083E491E00E94400388818430A5
:1003800029F461E085E491E00E944003F1E0CF1A96
:10039000D10889F6175F8AE0E80EF11C1D3219F6C4
:1003A000DF91CF911F91FF90EF90DF90CF90BF90A2
:1003B000AF900C94550386E091E0FC012AE030E018
:1003C0004191433019F4DF0111971C9221503109FA
:1003D000B9F70A9621E08833920779F780910001F6
:1003E000909101012AE0289FF001299FF00D11242E
:1003F000EA5FFE4F80914C0190914D01E80FF91F8B
:10040000809103018083089529986623A9F02B9A8F
:1004100027E030E090E0AC01022E02C055954795F0
:100420000A94E2F740FF0AC02C9A2D9A2D98215089
:10043000310988F7299A08952B98EACF2C98F5CF9F
:1004400060E00C940402CF93DF93219A229A239ABE
:10045000249A259A2A9A299A8FE39CE90197F1F721
:1004600000C000002A989FEF2AE683E091502040C8
:100470008040E1F700C000002A9A299881E20E949A
:10048000200283E10E94200286E00E94200282EC8A
:100490000E94200280E20E94200289E00E94200245
:1004A00080E80E94200280E40E942002C8EFD1E090
:1004B00061E080E00E9404022197D1F788E00E9469
:1004C00020028CE0DF91CF910C94200280E80E9402
:1004D000200280E40E94200210928B0310928C0371
:1004E000E3E9F1E088EF91E0DF019C011D922150EA
:1004F0003040E1F70895811103C084E20C9420029A
:1005000080E2FCCF962F969596959695E82FF0E091
:1005100084E5989FE00DF11D1124ED56FE4F2081DA
:10052000677081E090E001C0880F6A95EAF7442384
:1005300019F0282B2083089580952823FBCF8F92D4
:100540009F92AF92BF92DF92EF92FF920F931F9311
:10055000CF93DF9300D000D00F92CDB7DEB7E82F56
:10056000F62E80320CF44DC0E05285E0E802B00176
:10057000112468597F4F45E050E0CE0101960E945A
:10058000EA038E010F5F1F4F95E0F99E5001112481
:1005900087E0F89E40011124E12CEA141B040CF4BE
:1005A00063C080918B038F5F9F2D990F990F9F0DD3
:1005B000890F80938B03843558F080918C031092BF
:1005C0008B038F5F97E0F99E800D112480938C033D
:1005D00080918C03803320F010928B0310928C0357
:1005E0000F900F900F900F900F90DF91CF911F9170
:1005F0000F91FF90EF90DF90BF90AF909F908F9002
:100600000895EE0FFF0BED5AFE4F00811181011589
:10061000110509F0B9CF45E050E068E670E0ADCFD4
:10062000ED0D5E0D8E2D6F2D0E94DE03D801A80FFB
:10063000B11D2C9130E08D2D0E94DE0302C0359556
:1006400027958A95E2F741E020FF40E06E2F852F45
:100650000E948202D394E0918C0350918B03D814B2
:100660001904F4F2E39499CFD12CF5CFE82F80321E
:1006700034F4EE0FFF0BED5AFE4F71836083089543
:100680001F93CF93DF93162FEC018991811104C042
:10069000DF91CF911F910895612F0E949F02F5CFA6
:1006A00080938B0360938C030895CF93DF9380E84E
:1006B0000E94200280E40E942002C3E9D1E061E0B0
:1006C00089910E94040283E0CB38D807C1F7DF91FB
:1006D000CF910895529A539A549A209857985698C1
:1006E00055980E9423020E94660268E371E081E04F
:1006F0000E9436030E94830160914C0170914D016C
:1007000080910001909101010E94DB010E94830110
:10071000CAE00E9453010197F1F480914C0190913D
:100720004D0101972091000130910101C29FF0011C
:10073000C39FF00D1124EA5FFE4FE80FF91F2081DF
:10074000213039F390934D0180934C010E94DB01DD
:100750000E948301DECF0E9443010197D1F4809172
:100760000001909101010197C89FF001C99FF00D10
:100770001124EA5FFE4F20914C0130914D01E20FB0
:10078000F31F2081213029F2909301018093000111
:10079000DDCF0E946301019731F480914C0190916B
:1007A0004D010196BFCF0E947301019709F0B1CFAF
:1007B00080910001909101010196D6CF991B79E0BB
:1007C00004C0991F961708F0961B881F7A95C9F7E1
:1007D00080950895FB01DC0102C005900D92415007
:0A07E0005040D8F70895F894FFCFB9
:1007EA0002000403020101010101010101010101E9
:1007FA0001000000010100000001000001000000EA
:10080A0000010000010002000000000100010101D6
:10081A0001010101010101011024E0241020002F2F
:08082A0000240040002C000036
:00000001FF
