:100000000C9424010C9441010C9441010C94410185
:100010000C9441010C9441010C9441010C94410158
:100020000C9441010C9441010C9441010C94410148
:100030000C9441010C9441010C9441010C94410138
:100040000C9441010C9441010C9441010C94410128
:100050000C9441010C9441010C9441010C94410118
:100060000C9441010C944101000000000000005F6D
:1000700000000007000700147F147F14242A7F2A41
:10008000122313086462364955225000050300000C
:10009000001C2241000041221C0014083E081408E4
:1000A000083E0808005030000008080808080060F2
:1000B00060000020100804023E5149453E00427F86
:1000C000400042615149462141454B311814127F8D
:1000D0001027454545393C4A494930017109050316
:1000E0003649494936064949291E0036360000007E
:1000F0005636000008142241001414141414004150
:100100002214080201510906324979413E7E11113B
:10011000117E7F494949363E414141227F4141227A
:100120001C7F494949417F090909013E4149497AF2
:100130007F0808087F00417F41002040413F017F48
:10014000081422417F404040407F020C027F7F0420
:1001500008107F3E4141413E7F090909063E415159
:10016000215E7F09192946464949493101017F012C
:10017000013F4040403F1F2040201F3F4038403F4C
:100180006314081463070870080761514945430068
:100190007F41410002040810200041417F00040219
:1001A0000102044040404040000102040020545439
:1001B00054787F48444438384444442038444448C0
:1001C0007F3854545418087E0901020C5252523E92
:1001D0007F0804047800447D40002040443D007FB7
:1001E0001028440000417F40007C041804787C08FB
:1001F00004047838444444387C1414140808141453
:10020000187C7C080404084854545420043F44409B
:10021000203C4040207C1C2040201C3C4030403C86
:1002200044281028440C5050503C4464544C440022
:100230000836410000007F00000041360800100829
:10024000081008000000000011241FBECFEFD8E006
:10025000DEBFCDBF12E0A0E0B1E0EAEAFFE002C0FD
:1002600005900D92AA31B107D9F724E0AAE1B2E0D6
:1002700001C01D92A936B207E1F70E9446050C9411
:10028000D3070C9400004D9909C090E080E00895D8
:100290008FE39CE90197F1F700C000004D99F8CF7A
:1002A00081E090E008954E9909C090E080E00895C3
:1002B0008FE39CE90197F1F700C000004E99F8CF59
:1002C00081E090E008954F9909C090E080E00895A2
:1002D0008FE39CE90197F1F700C000004F99F8CF38
:1002E00081E090E00895189909C090E080E00895B9
:1002F0008FE39CE90197F1F700C000001899F8CF4F
:1003000081E090E00895AF92BF92CF92DF92EF929A
:10031000FF921F93CF93DF930E94B8029EE4E92ED1
:1003200091E0F92E10E0612F80E00E94A2035701B6
:100330008EE0C82ED12CF50181915F01811105C09D
:1003400061E089E991E00E949203E5018A918130A0
:1003500029F461E08BE991E00E9492038881823068
:1003600029F461E08DE991E00E9492038881833055
:1003700029F461E08FE991E00E9492038881843042
:1003800029F461E087E192E00E949203F1E0CF1A44
:10039000D10889F6175F8EE0E80EF11C1D3219F6C0
:1003A000DF91CF911F91FF90EF90DF90CF90BF90A2
:1003B000AF900C94A7038EE491E044E0FC012EE0A2
:1003C00030E05191533019F4DF0111974C932150D3
:1003D0003109B9F70E9621E08439920779F78091B7
:1003E0000201909103012EE0289FF001299FF00D5A
:1003F0001124E25BFE4F8091240290912502E80FC8
:10040000F91F80910501808308950E94B8026FE072
:100410008DE00E94A20361E081EA91E00E949203D4
:100420000C94A70380911C0290911D0261E001973A
:1004300071F48DEB91E00E94920361E082ED91E016
:100440000E94920361E081EE91E00C94920382EFAE
:1004500091E00E94920361E082ED91E00E9492039C
:1004600061E088E092E0F1CF0E94B80282E090E083
:1004700090930301809302011092250210922402AE
:100480000E94DB010E94830110922102109220023F
:100490008091000190910101019729F09093010151
:1004A00080930001089583E090E0F8CF29986623B7
:1004B000A9F02B9A27E030E090E0AC01022E02C0B8
:1004C000559547950A94E2F740FF0AC02C9A2D9A59
:1004D0002D982150310988F7299A08952B98EACF51
:1004E0002C98F5CF60E00C945602CF93DF93219ABD
:1004F000229A239A249A259A2A9A299A8FE39CE988
:100500000197F1F700C000002A989FEF2AE683E0E8
:10051000915020408040E1F700C000002A9A2998BD
:1005200081E20E94720283E10E94720286E00E94D0
:10053000720282EC0E94720280E20E94720289E0E2
:100540000E94720280E80E94720280E40E9472029D
:10055000C8EFD1E061E080E00E9456022197D1F718
:1005600088E00E9472028CE0DF91CF910C947202BD
:1005700080E80E94720280E40E9472021092670476
:1005800010926804EFE6F2E088EF91E0DF019C0151
:100590001D9221503040E1F70895811103C084E29B
:1005A0000C94720280E2FCCF962F969596959695C4
:1005B000E82FF0E084E5989FE00DF11D1124E1594A
:1005C000FD4F2081677081E090E001C0880F6A953F
:1005D000EAF7442319F0282B2083089580952823D7
:1005E000FBCF8F929F92AF92BF92DF92EF92FF92DA
:1005F0000F931F93CF93DF9300D000D00F92CDB70E
:10060000DEB7E82FF62E80320CF44DC0E05285E0C4
:10061000E802B001112468597F4F45E050E0CE0157
:1006200001960E94CA078E010F5F1F4F95E0F99E49
:100630005001112487E0F89E40011124E12CEA14B6
:100640001B040CF463C0809167048F5F9F2D990F8A
:10065000990F9F0D890F80936704843558F080911E
:100660006804109267048F5F97E0F99E800D112453
:100670008093680480916804803320F010926704AE
:10068000109268040F900F900F900F900F90DF91D1
:10069000CF911F910F91FF90EF90DF90BF90AF909F
:1006A0009F908F900895EE0FFF0BE15DFD4F00814D
:1006B00011810115110509F0B9CF45E050E068E658
:1006C00070E0ADCFED0D5E0D8E2D6F2D0E94F40507
:1006D000D801A80FB11D2C9130E08D2D0E94F4059A
:1006E00002C0359527958A95E2F741E020FF40E06A
:1006F0006E2F852F0E94D402D394E091680450910C
:100700006704D8141904F4F2E39499CFD12CF5CFEF
:10071000E82F803234F4EE0FFF0BE15DFD4F718363
:10072000608308951F93CF93DF93162FEC01899177
:10073000811104C0DF91CF911F910895612F0E9414
:10074000F102F5CF80936704609368040895CF9316
:10075000DF9380E80E94720280E40E947202CFE67A
:10076000D2E061E089910E94560284E0C736D80742
:10077000C1F7DF91CF9108954F925F926F927F9270
:100780008F929F92AF92BF92CF92DF92EF92FF92A1
:10079000CF93DF93CDB7DEB762970FB6F894DEBF85
:1007A0000FBECDBF8D876987F22E481B550BCA013E
:1007B000550FAA0BBB0B89839A83AB83BC83BC0107
:1007C000CD010E94150769837A838B839C83AF2DAB
:1007D0004985A41BBB0BCD01BB0FAA0BBB0B8D83A3
:1007E0009E83AF83B887BC01CD010E9415076D833E
:1007F0007E838F839887C980DA80EB80FC80E894C1
:10080000F7F84B015C01E894B7F8A5019401C70122
:10081000B6010E94C50787FF02C075016401A701E8
:10082000960169817A818B819C810E94720669831D
:100830007A838B839C834B015C01A70196016D81B8
:100840007E818F8198850E9472062B013C019D85D7
:10085000892F90E0B0E0A0E089839A83AB83BC83CA
:10086000BC01CD010E94130769837A838B839C832B
:100870009985892F90E0B0E0A0E08D839E83AF83BF
:10088000B887BC01CD010E9413076D837E838F83DF
:100890009887A1E0B0E0BA8BA98B89899A89092E43
:1008A000000CAA0BBB0B89879A87AB87BC87BC015E
:1008B000CD010E94150769877A878B879C87A701DE
:1008C00096010E946D061816ACF462960FB6F89465
:1008D000DEBF0FBECDBFDF91CF91FF90EF90DF90D5
:1008E000CF90BF90AF909F908F907F906F905F90D0
:1008F0004F9008956D817E818F8198850E94E406D6
:1009000069877A878B879C8769817A818B819C81B3
:100910000E94E4066D877E878F87988B41E069850A
:100920008D850E94D402A501940169817A818B8111
:100930009C810E94010669837A838B839C83A30137
:1009400092016D817E818F8198850E9401066D8361
:100950007E838F83988789899A8901969A8B898B60
:100960009CCF0F931F93CF93DF93C82F162F042F85
:10097000D22F262F0E94BC032D2F402F612F802FB6
:100980000E94BC032D2F4C2F6D2F802F0E94BC0383
:10099000212F4C2F6D2F8C2FDF91CF911F910F9115
:1009A0000C94BC037F928F929F92AF92BF92CF9292
:1009B000DF92EF92FF920F931F93CF93DF93D82E86
:1009C000C62EC42FD0E0F12CE12C10E000E041E075
:1009D000AC2CA00E6A2DBC2EBD0C8B2D0E94D40217
:1009E00041E08C2E8C0C682D9D2C900E892D0E9440
:1009F000D40241E0682D7D2C701A872D0E94D4020C
:100A000041E06A2D8D2C8C1A882D0E94D40241E081
:100A1000AC2CA01A6A2D882D0E94D40241E08C2CA7
:100A20008C1A682D872D0E94D40241E0682D892DF3
:100A30000E94D40241E06A2D8B2D0E94D4021E1424
:100A40001F045CF00F5F1F4FC801880F991F0196AC
:100A5000E80EF91E1E141F043CF42197CE01880FE6
:100A6000991F0196E81AF90AC017D1070CF0AFCF09
:100A7000DF91CF911F910F91FF90EF90DF90CF907A
:100A8000BF90AF909F908F907F900895529A539A05
:100A9000549A20985798569855980E9475020E942B
:100AA000B80264E971E081E00E9488030E940502B7
:100AB000C1E0D0E00E945301892B51F4CEE0809137
:100AC0001A0290911B020197C1F090E080E0089516
:100AD0000E94B8020E948301609124027091250255
:100AE00080910201909103010E94DB010E94830129
:100AF000D0931B02C0931A02DDCF0E9453010197CD
:100B000091F5809124029091250201972091020194
:100B100030910301C29FF001C39FF00D1124E25BED
:100B2000FE4FE80FF91F20813FEF320F3230A8F05F
:100B300021110AC020912002309121022F5F3F4FE6
:100B40003093210220932002909325028093240267
:100B50000E94DB010E948301B2CF223009F0AFCFA7
:100B60000E943402ACCF0E944301019741F580916D
:100B70000201909103010197C89FF001C99FF00DF8
:100B80001124E25BFE4F2091240230912502E20FF6
:100B9000F31F20813FEF320F3230F8F221110AC0EB
:100BA00020912002309121022F5F3F4F309321028C
:100BB000209320029093030180930201C9CF0E94E9
:100BC0006301019731F480912402909125020196EE
:100BD0009DCF0E947301019709F071CF80910201AE
:100BE000909103010196C8CF991B79E004C0991F29
:100BF000961708F0961B881F7A95C9F78095089577
:100C00005058BB27AA270E9418060C948B070E94F5
:100C10007D0738F00E94840720F039F49F3F19F4D3
:100C200026F40C947A070EF4E095E7FB0C94740715
:100C3000E92F0E949C0758F3BA17620773078407CD
:100C4000950720F079F4A6F50C94BE070EF4E09514
:100C50000B2EBA2FA02D0B01B90190010C01CA0176
:100C6000A0011124FF27591B99F0593F50F4503E21
:100C700068F11A16F040A22F232F342F4427585F13
:100C8000F3CF469537952795A795F0405395C9F72B
:100C90007EF41F16BA0B620B730B840BBAF09150E3
:100CA000A1F0FF0FBB1F661F771F881FC2F70EC082
:100CB000BA0F621F731F841F48F487957795679555
:100CC000B795F7959E3F08F0B0CF9395880F08F041
:100CD0009927EE0F9795879508950E94500708F47D
:100CE00081E008950E9486060C948B070E94840779
:100CF00058F00E947D0740F029F45F3F29F00C94E2
:100D0000740751110C94BF070C947A070E949C073A
:100D100068F39923B1F3552391F3951B550BBB272A
:100D2000AA2762177307840738F09F5F5F4F220F6F
:100D3000331F441FAA1FA9F335D00E2E3AF0E0E866
:100D400032D091505040E695001CCAF72BD0FE2FB0
:100D500029D0660F771F881FBB1F26173707480744
:100D6000AB07B0E809F0BB0B802DBF01FF279358FC
:100D70005F4F3AF09E3F510578F00C9474070C9445
:100D8000BF075F3FE4F3983ED4F386957795679568
:100D9000B795F7959F5FC9F7880F911D9695879531
:100DA00097F90895E1E0660F771F881FBB1F621750
:100DB00073078407BA0720F0621B730B840BBA0B0E
:100DC000EE1F88F7E09508950E94A40788F09F57CA
:100DD00098F0B92F9927B751B0F0E1F0660F771F5F
:100DE000881F991F1AF0BA95C9F714C0B13091F055
:100DF0000E94BE07B1E008950C94BE07672F782FBC
:100E00008827B85F39F0B93FCCF386957795679519
:100E1000B395D9F73EF490958095709561957F4F85
:100E20008F4F9F4F0895E89409C097FB3EF490952B
:100E30008095709561957F4F8F4F9F4F9923A9F0B3
:100E4000F92F96E9BB279395F69587957795679542
:100E5000B795F111F8CFFAF4BB0F11F460FF1BC086
:100E60006F5F7F4F8F4F9F4F16C0882311F096E919
:100E700011C0772321F09EE8872F762F05C06623C7
:100E800071F096E8862F70E060E02AF09A95660F80
:100E9000771F881FDAF7880F9695879597F9089539
:100EA000990F0008550FAA0BE0E8FEEF161617067B
:100EB000E807F907C0F012161306E407F50798F0E3
:100EC000621B730B840B950B39F40A2661F0232BFC
:100ED000242B252B21F408950A2609F4A140A69578
:100EE0008FEF811D811D089597F99F6780E870E05D
:100EF00060E008959FEF80EC089500240A94161690
:100F0000170618060906089500240A9412161306F7
:100F1000140605060895092E0394000C11F4882385
:100F200052F0BB0F40F4BF2B11F460FF04C06F5FA1
:100F30007F4F8F4F9F4F089557FD9058440F551F77
:100F400059F05F3F71F04795880F97FB991F61F04B
:100F50009F3F79F087950895121613061406551FC2
:100F6000F2CF4695F1DF08C0161617061806991F2E
:100F7000F1CF86957105610508940895E894BB2723
:100F800066277727CB0197F908950E94500708F448
:100F90008FEF0895FB01DC0102C005900D924150D6
:0A0FA0005040D8F70895F894FFCFF1
:100FAA000300020004030201010101010101010120
:100FBA00010101010101010000000101000000001E
:100FCA000000000100000100000000010000000014
:100FDA000000010002000000000100000000000102
:100FEA0001010101010101010101010101010101E7
:100FFA0001010101010101010101010101000000DA
:10100A0001010000000000000001000001000000D2
:10101A0000010000000000000100020000000001C1
:10102A0000000000000101010101010101010101AB
:10103A00010101011024E024102E002F0024004099
:10104A0000496E69636965206F206A6F676F204186
:10105A0070657274616E646F2027572700566F633C
:10106A00C3AA20506572646575206F204A6F676F46
:10107A002100506F6E747561C3A7C3A36F203A2015
:10108A000054656D706F206465206A6F676F203A3F
:10109A002000566F63C3AA2067616E686F75206F60
:1010AA00206A6F676F20210054656D706F20646538
:0A10BA00204A6F676F203A20000003
:00000001FF
