:100000000C9424010C9441010C9441010C94410185
:100010000C9441010C9441010C9441010C94410158
:100020000C9441010C9441010C9441010C9427055E
:100030000C9441010C9441010C9441010C94410138
:100040000C9441010C9441010C9441010C94410128
:100050000C9441010C9441010C9441010C94410118
:100060000C9441010C944101000000000000005F6D
:1000700000000007000700147F147F14242A7F2A41
:10008000122313086462364955225000050300000C
:10009000001C2241000041221C0014083E081408E4
:1000A000083E0808005030000008080808080060F2
:1000B00060000020100804023E5149453E00427F86
:1000C000400042615149462141454B311814127F8D
:1000D0001027454545393C4A494930017109050316
:1000E0003649494936064949291E0036360000007E
:1000F0005636000008142241001414141414004150
:100100002214080201510906324979413E7E11113B
:10011000117E7F494949363E414141227F4141227A
:100120001C7F494949417F090909013E4149497AF2
:100130007F0808087F00417F41002040413F017F48
:10014000081422417F404040407F020C027F7F0420
:1001500008107F3E4141413E7F090909063E415159
:10016000215E7F09192946464949493101017F012C
:10017000013F4040403F1F2040201F3F4038403F4C
:100180006314081463070870080761514945430068
:100190007F41410002040810200041417F00040219
:1001A0000102044040404040000102040020545439
:1001B00054787F48444438384444442038444448C0
:1001C0007F3854545418087E0901020C5252523E92
:1001D0007F0804047800447D40002040443D007FB7
:1001E0001028440000417F40007C041804787C08FB
:1001F00004047838444444387C1414140808141453
:10020000187C7C080404084854545420043F44409B
:10021000203C4040207C1C2040201C3C4030403C86
:1002200044281028440C5050503C4464544C440022
:100230000836410000007F00000041360800100829
:10024000081008000000000011241FBECFEFD8E006
:10025000DEBFCDBF12E0A0E0B1E0ECECFCE102C0FB
:1002600005900D92A833B107D9F724E0A8E3B2E0D6
:1002700001C01D92A93AB207E1F70E9430080C9420
:10028000640E0C9400004E9909C090E080E008953F
:100290008FE39CE90197F1F700C000004E99F8CF79
:1002A00081E090E008954D9909C090E080E00895C4
:1002B0008FE39CE90197F1F700C000004D99F8CF5A
:1002C00081E090E008954F9909C090E080E00895A2
:1002D0008FE39CE90197F1F700C000004F99F8CF38
:1002E00081E090E00895189909C090E080E00895B9
:1002F0008FE39CE90197F1F700C000001899F8CF4F
:1003000081E090E008952AE031E090E080E0F9019A
:1003100050E040E06191611101C001964F5F5F4F75
:100320004E305105B9F7225F3F4F41E02035340789
:1003300071F72AE0AC01249FC001259F900D112484
:1003400008958AE091E044E0FC012EE030E0519114
:10035000533019F4DF0111974C9321503109B9F74B
:100360000E9621E08035920779F7809104019091F3
:1003700005012EE0289FF001299FF00D1124E65F72
:10038000FE4F8091020190910301E80FF91F8091C7
:100390000701808308950E94A20582E090E0909377
:1003A00005018093040181E090E090930301809324
:1003B0000201809100019091010101979093010148
:1003C000809300010E94A1015A9A2FEF81EE94E0E0
:1003D000215080409040E1F700C000005A982FEF74
:1003E00081EE94E0215080409040E1F700C0000091
:1003F0005A9A2FEF81EE94E0215080409040E1F72F
:1004000000C000005A982FEF81EE94E02150804008
:100410009040E1F700C000005A9A2FEF81EE94E07F
:10042000215080409040E1F700C000005A982FEF23
:1004300081EE94E0215080409040E1F700C0000040
:100440005A9A2FEF81EE94E0215080409040E1F7DE
:1004500000C000005A982FEF81EE94E021508040B8
:100460009040E1F700C000005A9A2FEF81EE94E02F
:10047000215080409040E1F700C000005A982FEFD3
:1004800081EE94E0215080409040E1F700C00000F0
:1004900008958F929F92AF92BF92CF92DF92EF9288
:1004A000FF921F93CF93DF930E94A2058AE0C82E8C
:1004B00081E0D82E10E0B12CA12C612F80E00E94A9
:1004C0008C062BE243E560E080E00E949B0746013A
:1004D000F12CE12CF40181914F01811105C061E003
:1004E00081EE91E00E947C06E4018A91813051F412
:1004F000C5018E299F29892B69F061E083EE91E087
:100500000E947C068881823029F461E085EE91E0CA
:100510000E947C068881833029F461E087EE91E0B7
:100520000E947C068881843029F461E089EE91E0A4
:100530000E947C06FFEFEF1AFF0A8EE0E816F10436
:1005400049F6EFEFAE1ABE0A175FFEE0CF0ED11CE0
:100550001D3209F0B2CFDF91CF911F91FF90EF9044
:10056000DF90CF90BF90AF909F908F900C949106AA
:100570000E94A2056AE080E00E948C0661E08BEE9A
:1005800091E00E947C0664E180E00E948C0661E0BC
:1005900089EF91E00E947C060E94910682E090E043
:1005A000909305018093040181E090E09093030112
:1005B000809302010C94A1018091040190910501A6
:1005C00020910201309103014EE0489FF001499FC4
:1005D000F00D1124E65FFE4FE20FF31FDF011197CC
:1005E0005C91523021F15181523009F1BC016150CE
:1005F0007109469FF001479FF00D1124E65FFE4F01
:10060000E20FF31F5081523091F00196489FF001A4
:10061000499FF00D1124E65FFE4FE20FF31F81E0CA
:1006200090E02081223029F090E080E0089581E080
:1006300090E008950F931F93CF93DF93CDB7DEB76C
:10064000CC58D1090FB6F894DEBF0FBECDBF8CE8F1
:10065000E5E5F1E0DE01119601900D928A95E1F752
:10066000CE0101964AE051E0BE0163577F4FDA01A7
:10067000FC0130E020E0019111910D932F5F3F4F7D
:100680002E303105C1F74C96425F5F4F86179707B2
:1006900071F783E090E09093010180930001109244
:1006A0005F0210925E020E94830190936102809328
:1006B000600282E090E0909305018093040181E064
:1006C00090E090930301809302010E94A101C4571E
:1006D000DF4F0FB6F894DEBF0FBECDBFDF91CF91D5
:1006E0001F910F910C944902CF93DF93F89480915E
:1006F0003802909139020196909339028093380222
:100700005C9A0E94A2056AE08AE00E948C0661E081
:1007100087E092E00E947C0664E18AE00E948C06F9
:1007200080915F028F9380915E028F9383E192E0CC
:100730009F938F93CCE3D2E0DF93CF930E94930BF0
:1007400061E0CE010E947C066EE18AE00E948C0688
:1007500080913B028F9380913A028F938CE192E0DB
:100760009F938F93DF93CF930E94930B61E0CE0111
:100770000E947C0668E28AE00E948C068091390221
:100780008F93809138028F9384E292E09F938F93AE
:10079000DF93CF930E94930B61E0CE010E947C0611
:1007A0000E9491062FEF8FE493EC215080409040FF
:1007B000E1F700C000005A9880915E0290915F02BC
:1007C0002091600230916102820F931F90935F022B
:1007D00080935E020E94A2050E941A0382E090E0CC
:1007E000909305018093040181E090E090930301D0
:1007F000809302010E94A1018DB79EB742960FB669
:10080000F8949EBF0FBE8DBFDF91CF910C9449022B
:10081000CF93DF93F8945A9A0E94A2056AE08AE087
:100820000E948C0661E08AE292E00E947C0664E10C
:100830008AE00E948C0680915F028F9380915E0215
:100840008F9383E192E09F938F93CCE3D2E0DF9389
:10085000CF930E94930B61E0CE010E947C066EE173
:100860008AE00E948C0680913B028F9380913A022D
:100870008F938CE192E09F938F93DF93CF930E94AD
:10088000930B61E0CE010E947C0668E28AE00E9440
:100890008C06809139028F93809138028F9384E285
:1008A00092E09F938F93DF93CF930E94930B1092CC
:1008B00039021092380261E0CE010E947C060E944B
:1008C00091062FEF8FE493EC215080409040E1F7A8
:1008D00000C000005A9810925F0210925E020E94BF
:1008E000A2050E941A0382E090E090930501809394
:1008F000040181E090E090930301809302010E9443
:10090000A1018DB79EB742960FB6F8949EBF0FBE59
:100910008DBFDF91CF910C9449022F923F924F925D
:100920005F926F927F928F929F92AF92BF92CF927F
:10093000DF92EF92FF920F931F93CF93DF938AE0A2
:10094000C82E81E0D82ED0E0C0E0512C412CB12C33
:10095000A12C9EE0392E760110E000E03C9EC00103
:100960003D9E900D1124FC01E65FFE4F3F01F70113
:1009700021907F0198012F5F3F4F490132E0231200
:100980003AC00E94DC020197E1F43A9CF0013B9CE2
:10099000F00D1124E65FFE4FE40DF51D80818130DE
:1009A00021F02082F701319780830E94CB010E94C1
:1009B00049028091000190910101892B11F40E945C
:1009C0000804809102019091030187309105ACF5F4
:1009D000280181E0481A51088FEF9FEFF301E40DE1
:1009E000F51D2081213031F0D7013E91E80FF91F2C
:1009F00030832C935E0184010E30110509F0B7CFCE
:100A00000E94490221969EE0C90ED11CC530D10535
:100A100009F0A1CFDF91CF911F910F91FF90EF903F
:100A2000DF90CF90BF90AF909F908F907F906F900E
:100A30005F904F903F902F900895079721F02401E9
:100A400081E090E0CBCF280190E080E0C7CF1F92FB
:100A50001FB61F9211248F939F93109285001092BE
:100A6000840080913A0290913B02019690933B0260
:100A700080933A029F918F911F901FBE1F901895EF
:100A800029986623A9F02B9A27E030E090E0AC018A
:100A9000022E02C0559547950A94E2F740FF0AC01E
:100AA0002C9A2D9A2D982150310988F7299A08956A
:100AB0002B98EACF2C98F5CF60E00C944005CF93AB
:100AC000DF93219A229A239A249A259A2A9A299A7C
:100AD0008FE39CE90197F1F700C000002A989FEF8F
:100AE0002AE683E0915020408040E1F700C00000FA
:100AF0002A9A299881E20E945C0583E10E945C05A4
:100B000086E00E945C0582EC0E945C0580E20E9407
:100B10005C0589E00E945C0580E80E945C0580E439
:100B20000E945C05C8EFD1E061E080E00E944005D2
:100B30002197D1F788E00E945C058CE0DF91CF918E
:100B40000C945C0580E80E945C0580E40E945C05D2
:100B50001092A7041092A804EFEAF2E088EF91E067
:100B6000DF019C011D9221503040E1F70895811171
:100B700003C084E20C945C0580E2FCCF962F96952E
:100B800096959695E82FF0E084E5989FE00DF11D8D
:100B90001124E155FD4F2081677081E090E001C094
:100BA000880F6A95EAF7442319F0282B20830895CB
:100BB00080952823FBCF8F929F92AF92BF92DF92B6
:100BC000EF92FF920F931F93CF93DF9300D000D04B
:100BD0000F92CDB7DEB7E82FF62E80320CF44DC061
:100BE000E05285E0E802B001112468597F4F45E0EA
:100BF00050E0CE0101960E948A0B8E010F5F1F4FBD
:100C000095E0F99E5001112487E0F89E40011124DF
:100C1000E12CEA141B040CF463C08091A7048F5FDD
:100C20009F2D990F990F9F0D890F8093A7048435ED
:100C300058F08091A8041092A7048F5F97E0F99E66
:100C4000800D11248093A8048091A804803320F0A3
:100C50001092A7041092A8040F900F900F900F907D
:100C60000F90DF91CF911F910F91FF90EF90DF9048
:100C7000BF90AF909F908F900895EE0FFF0BE159BA
:100C8000FD4F008111810115110509F0B9CF45E033
:100C900050E068E670E0ADCFED0D5E0D8E2D6F2D4E
:100CA0000E94B409D801A80FB11D2C9130E08D2D00
:100CB0000E94B40902C0359527958A95E2F741E074
:100CC00020FF40E06E2F852F0E94BE05D394E09157
:100CD000A8045091A704D8141904F4F2E39499CF0E
:100CE000D12CF5CFE82F803234F4EE0FFF0BE15911
:100CF000FD4F7183608308951F93CF93DF93162F69
:100D0000EC018991811104C0DF91CF911F91089569
:100D1000612F0E94DB05F5CF8093A7046093A804A0
:100D20000895CF93DF9380E80E945C0580E40E94E1
:100D30005C05CFEAD2E061E089910E94400584E041
:100D4000C73AD807C1F7DF91CF9108954F925F92CC
:100D50006F927F928F929F92AF92BF92CF92DF92CB
:100D6000EF92FF92CF93DF93CDB7DEB762970FB6C6
:100D7000F894DEBF0FBECDBF8D876987F22E481B6A
:100D8000550BCA01550FAA0BBB0B89839A83AB8302
:100D9000BC83BC01CD010E94D50A69837A838B8311
:100DA0009C83AF2D4985A41BBB0BCD01BB0FAA0BA8
:100DB000BB0B8D839E83AF83B887BC01CD010E949E
:100DC000D50A6D837E838F839887C980DA80EB8014
:100DD000FC80E894F7F84B015C01E894B7F8A501B2
:100DE0009401C701B6010E94850B87FF02C07501FF
:100DF0006401A701960169817A818B819C810E949F
:100E0000320A69837A838B839C834B015C01A7013F
:100E100096016D817E818F8198850E94320A2B0117
:100E20003C019D85892F90E0B0E0A0E089839A8302
:100E3000AB83BC83BC01CD010E94D30A69837A8352
:100E40008B839C839985892F90E0B0E0A0E08D830F
:100E50009E83AF83B887BC01CD010E94D30A6D8306
:100E60007E838F839887A1E0B0E0BA8BA98B8989B4
:100E70009A89092E000CAA0BBB0B89879A87AB872E
:100E8000BC87BC01CD010E94D50A69877A878B8710
:100E90009C87A70196010E942D0A1816ACF4629651
:100EA0000FB6F894DEBF0FBECDBFDF91CF91FF909C
:100EB000EF90DF90CF90BF90AF909F908F907F90FA
:100EC0006F905F904F9008956D817E818F8198859E
:100ED0000E94A40A69877A878B879C8769817A81B7
:100EE0008B819C810E94A40A6D877E878F87988B57
:100EF00041E069858D850E94BE05A5019401698147
:100F00007A818B819C810E94C10969837A838B835A
:100F10009C83A30192016D817E818F8198850E94BF
:100F2000C1096D837E838F83988789899A89019609
:100F30009A8B898B9CCF0F931F93CF93DF93C82FEE
:100F4000162F042FD22F262F0E94A6062D2F402FBA
:100F5000612F802F0E94A6062D2F4C2F6D2F802FE2
:100F60000E94A606212F4C2F6D2F8C2FDF91CF9141
:100F70001F910F910C94A6067F928F929F92AF9231
:100F8000BF92CF92DF92EF92FF920F931F93CF9376
:100F9000DF93D82EC62EC42FD0E0F12CE12C10E028
:100FA00000E041E0AC2CA00E6A2DBC2EBD0C8B2DB8
:100FB0000E94BE0541E08C2E8C0C682D9D2C900E5D
:100FC000892D0E94BE0541E0682D7D2C701A872D69
:100FD0000E94BE0541E06A2D8D2C8C1A882D0E943E
:100FE000BE0541E0AC2CA01A6A2D882D0E94BE05DA
:100FF00041E08C2C8C1A682D872D0E94BE0541E0A3
:10100000682D892D0E94BE0541E06A2D8B2D0E941E
:10101000BE051E141F045CF00F5F1F4FC801880F30
:10102000991F0196E80EF91E1E141F043CF4219727
:10103000CE01880F991F0196E81AF90AC017D10747
:101040000CF0AFCFDF91CF911F910F91FF90EF90F8
:10105000DF90CF90BF90AF909F908F907F9008953A
:10106000529A539A549A20985798569855980E9495
:101070005F050E94A20560E571E081E00E947206B2
:1010800080918100886080938100809181008460DC
:101090008093810084E294EF90938900809388008C
:1010A00080916F00826080936F00109263021092B3
:1010B00062020E94830190936102809360020E9409
:1010C000B802D0E0C0E01EE00E945301892B41F03D
:1010D000209731F40E94A1010E944902C1E0D0E0B2
:1010E00078948FE99FE00197F1F700C000008091AC
:1010F0006202909163020196909363028093620270
:10110000883E934031F40E948D0410926302109245
:1011100062020E944301019709F04FC080910401CF
:1011200090910501189FF001199FF00D11248091F5
:10113000020190910301E80FF91FE75FFE4F8081E4
:101140009FEF980F923010F1811116C080915E02CE
:1011500090915F020A9690935F0280935E022091C5
:101160006002309161028217930731F40E94740388
:1011700010923B0210923A02809102019091030179
:101180000197909303018093020154C0823009F0CB
:101190009BCF0E94CB018091000190910101892B8E
:1011A00009F092CF0E94080410923B0210923A027A
:1011B00010925F0210925E0287CF0E945301019746
:1011C00009F056C080910401909105010197189F84
:1011D000F001199FF00D1124E65FFE4F809102018E
:1011E00090910301E80FF91F80819FEF980F9230D3
:1011F00030F1811116C080915E0290915F020A96D3
:1012000090935F0280935E022091600230916102B0
:101210008217930731F40E94740310923B021092DC
:101220003A02809104019091050101979093050184
:10123000809304010E94A1010E94490245CF82309F
:1012400009F042CF0E94A1010E94CB0180910001D0
:1012500090910101892B09F037CF0E940804109268
:101260005F0210925E0210923B0210923A022CCF63
:101270000E9463010197C9F58091040190910501D5
:10128000189FF001199FF00D1124E65FFE4F809129
:10129000020190910301E80FF91F81819FEF980FE0
:1012A000923008F473CF81111AC080915E02909140
:1012B0005F020A9690935F0280935E022091600223
:1012C000309161028217930751F40E9474031092C7
:1012D0003B0210923A0210925F0210925E028091DD
:1012E00002019091030101964CCF0E947301019776
:1012F00009F0EACE80910401909105010196189FB2
:10130000F001199FF00D1124E65FFE4F809102015C
:1013100090910301E80FF91F80819FEF980F9230A1
:1013200008F434CF81111AC080915E0290915F025F
:101330000A9690935F0280935E0220916002309142
:1013400061028217930751F40E94740310923B02CA
:1013500010923A0210925F0210925E028091040194
:1013600090910501019662CF991B79E004C0991F05
:10137000961708F0961B881F7A95C9F780950895EF
:101380005058BB27AA270E94D8090C944B0B0E94E7
:101390003D0B38F00E94440B20F039F49F3F19F4C4
:1013A00026F40C943A0B0EF4E095E7FB0C94340B06
:1013B000E92F0E945C0B58F3BA1762077307840782
:1013C000950720F079F4A6F50C947E0B0EF4E095C9
:1013D0000B2EBA2FA02D0B01B90190010C01CA01EF
:1013E000A0011124FF27591B99F0593F50F4503E9A
:1013F00068F11A16F040A22F232F342F4427585F8C
:10140000F3CF469537952795A795F0405395C9F7A3
:101410007EF41F16BA0B620B730B840BBAF091505B
:10142000A1F0FF0FBB1F661F771F881FC2F70EC0FA
:10143000BA0F621F731F841F48F4879577956795CD
:10144000B795F7959E3F08F0B0CF9395880F08F0B9
:101450009927EE0F9795879508950E94100B08F431
:1014600081E008950E94460A0C944B0B0E94440BA5
:1014700058F00E943D0B40F029F45F3F29F00C9496
:10148000340B51110C947F0B0C943A0B0E945C0BA3
:1014900068F39923B1F3552391F3951B550BBB27A3
:1014A000AA2762177307840738F09F5F5F4F220FE8
:1014B000331F441FAA1FA9F335D00E2E3AF0E0E8DF
:1014C00032D091505040E695001CCAF72BD0FE2F29
:1014D00029D0660F771F881FBB1F261737074807BD
:1014E000AB07B0E809F0BB0B802DBF01FF27935875
:1014F0005F4F3AF09E3F510578F00C94340B0C94FA
:101500007F0B5F3FE4F3983ED4F38695779567951C
:10151000B795F7959F5FC9F7880F911D96958795A9
:1015200097F90895E1E0660F771F881FBB1F6217C8
:1015300073078407BA0720F0621B730B840BBA0B86
:10154000EE1F88F7E09508950E94640B88F09F577E
:1015500098F0B92F9927B751B0F0E1F0660F771FD7
:10156000881F991F1AF0BA95C9F714C0B13091F0CD
:101570000E947E0BB1E008950C947E0B672F782FAC
:101580008827B85F39F0B93FCCF386957795679592
:10159000B395D9F73EF490958095709561957F4FFE
:1015A0008F4F9F4F0895E89409C097FB3EF49095A4
:1015B0008095709561957F4F8F4F9F4F9923A9F02C
:1015C000F92F96E9BB279395F695879577956795BB
:1015D000B795F111F8CFFAF4BB0F11F460FF1BC0FF
:1015E0006F5F7F4F8F4F9F4F16C0882311F096E992
:1015F00011C0772321F09EE8872F762F05C0662340
:1016000071F096E8862F70E060E02AF09A95660FF8
:10161000771F881FDAF7880F9695879597F90895B1
:10162000990F0008550FAA0BE0E8FEEF16161706F3
:10163000E807F907C0F012161306E407F50798F05B
:10164000621B730B840B950B39F40A2661F0232B74
:10165000242B252B21F408950A2609F4A140A695F0
:101660008FEF811D811D089597F99F6780E870E0D5
:1016700060E008959FEF80EC089500240A94161608
:10168000170618060906089500240A941216130670
:10169000140605060895092E0394000C11F48823FE
:1016A00052F0BB0F40F4BF2B11F460FF04C06F5F1A
:1016B0007F4F8F4F9F4F089557FD9058440F551FF0
:1016C00059F05F3F71F04795880F97FB991F61F0C4
:1016D0009F3F79F087950895121613061406551F3B
:1016E000F2CF4695F1DF08C0161617061806991FA7
:1016F000F1CF86957105610508940895E894BB279C
:1017000066277727CB0197F908950E94100B08F4FC
:101710008FEF0895FB01DC0102C005900D9241504E
:101720005040D8F70895AEE0B0E0E9E9FBE00C9452
:101730003B0E0D891E8986E08C831A8309838FEF07
:101740009FE79E838D83AE01475E5F4F6F89788DE3
:10175000CE0101960E94B60B2F813885020F131F10
:10176000F80110822E96E4E00C94570EAFE0B0E042
:10177000ECEBFBE00C942D0E7C013B018A01DC01BB
:1017800017961C921E92169713968C9181FFBEC1DC
:101790009AE0292EFE0131964F01D70113969C91B4
:1017A000F30193FD859193FF81913F01882309F413
:1017B00044C1853239F493FD859193FF81913F01B6
:1017C000853229F4B70190E00E949F0DE6CFB12C3D
:1017D000412C512CBFE1B51538F08B3209F188F45A
:1017E000803201F1833221F157FC3AC020ED280FFD
:1017F0002A3040F556FE1FC0B29C200D1124B22E97
:1018000006C08D3291F0803379F7689450F8F30177
:1018100093FD859193FF81913F018111DBCF20C022
:10182000689451F8689452F8F2CF689453F8EFCF67
:10183000689454F8ECCF429C200D1124422E6894F9
:1018400055F8E5CF8E3229F456FCF7C0689456F867
:10185000DECF8C3619F4689457F8D9CF8836B9F2B0
:10186000982F9F7D95549330C0F0833681F1833754
:10187000A1F1833509F05BC0D801CD90DD908D01D9
:101880006B2D70E056FC02C06FEF7FEFC6010E9427
:10189000890D5C01689457F80AC00C5F1F4FEFE395
:1018A000E983AA24A394B12C6401E89457F853FE69
:1018B00029C0342CA114B10451F5332009F46DCFA3
:1018C000B70180E290E00E949F0D3A94F6CFD801D4
:1018D0008C9189830E5F1F4FE4CFF801C190D190A6
:1018E0008F016B2D70E056FC02C06FEF7FEFC601D9
:1018F0000E94940D5C01D9CFB70180E290E00E9474
:101900009F0D4A944A141B0409F0B0F7D2CFF60198
:1019100057FC859157FE81916F01B70190E00E94BD
:101920009F0D31103A94B1E0AB1AB108C3CF8436A1
:1019300019F0893609F071C0F80157FE67C061914E
:101940007191819191918F01E52DEF76DE2E97FFB8
:1019500009C090958095709561957F4F8F4F9F4FEF
:101960006894D7F82AE030E0A4010E94CF0DC82E79
:10197000C818AC2C5D2CD6FE0CC0E89450F8CB14E3
:1019800040F4D4FE05C0D2FC03C05D2D5E7E552E12
:10199000AB2C54FE93C0FE01EC0DF11D8081803311
:1019A00009F085C0652D697E562E752D7870372E0D
:1019B00053FC93C050FE8DC0BC2CA41410F4B40C86
:1019C000BA1854FE90C0B70180E390E00E949F0DCA
:1019D00052FE07C088E751FC88E590E0B7010E94FD
:1019E0009F0DCB1408F48BC0CA94D12C8FEFC81A6A
:1019F000D80AC80CD91CD6018E916D01B70190E0B0
:101A00000E949F0D8C149D04B1F757CF6191719185
:101A1000072E000C880B990B96CFD52CE894D4F8A0
:101A20002AE0853729F1F52DF97FDF2E8037A1F0E7
:101A300058F48835A1F08F36D1F0F701868197816F
:101A40002F96E2E10C94490E8837B9F7D4FE02C014
:101A50006894D2F820E10CC06894D4F8F7CF54FE13
:101A600003C02F2F2660D22E20E132E002C028E0F2
:101A700030E0F801D7FE15C041915191619171910B
:101A80004C875D876E877F878F01A4016C857D857C
:101A90008E859F850E94CF0DC82EC818E894D7F870
:101AA00068CF81919191AC0170E060E0E9CF52FC88
:101AB00002C0A3947ACFA394A39477CF852D867880
:101AC00009F473CFF6CFB70180E290E00E949F0D3A
:101AD000A394A414C0F3312C74CF342C3A18A4145A
:101AE00008F46FCFF8CF852D867809F47ACF8BE292
:101AF00051FE80E257FC8DE2B70190E070CFB70154
:101B000080E390E00E949F0DBA946BCF8FEF9FEF20
:101B100097CFFC010590615070400110D8F7809577
:101B200090958E0F9F1F0895FC01615070400190A9
:101B30000110D8F7809590958E0F9F1F08950F93F1
:101B40001F93CF93DF93182F092FEB018B8181FD1A
:101B500009C01FEF0FEF812F902FDF91CF911F91C1
:101B60000F91089582FF14C02E813F818C819D8149
:101B7000281739073CF4E881F981CF010196998350
:101B8000888310838E819F8101969F838E83E3CF0C
:101B9000E885F985812F0995892BA1F3DACFFA0120
:101BA000AA27283051F1203181F1E8946F936E7F9C
:101BB0006E5F7F4F8F4F9F4FAF4FB1E03ED0B4E08D
:101BC0003CD0670F781F891F9A1FA11D680F791FCE
:101BD0008A1F911DA11D6A0F711D811D911DA11DDF
:101BE00020D009F468943F912AE0269F11243019EF
:101BF000305D3193DEF6CF010895462F4770405D8A
:101C00004193B3E00FD0C9F7F6CF462F4F70405D38
:101C10004A3318F0495D31FD4052419302D0A9F793
:101C2000EACFB4E0A6959795879577956795BA958D
:101C3000C9F700976105710508959B01AC010A2E53
:101C400006945795479537952795BA95C9F7620F2A
:101C5000731F841F951FA01D08952F923F924F92CE
:101C60005F926F927F928F929F92AF92BF92CF922C
:101C7000DF92EF92FF920F931F93CF93DF93CDB735
:101C8000DEB7CA1BDB0B0FB6F894DEBF0FBECDBFAD
:101C900009942A88398848885F846E847D848C847E
:101CA0009B84AA84B984C884DF80EE80FD800C8187
:101CB0001B81AA81B981CE0FD11D0FB6F894DEBF6A
:0C1CC0000FBECDBFED010895F894FFCFDA
:101CCC0003000100020004030201010101010101F2
:101CDC0001010101010101010100010000000100ED
:101CEC0000000001000101040000000000000200DF
:101CFC0000000001010000000000000000000000D6
:101D0C0000010101010101010101010101010101B8
:101D1C001024E02410010001000100010001000169
:101D2C00000100010001000100010001000100019F
:101D3C000001000000010000000000000001000094
:101D4C000000000000000001000000010001000480
:101D5C000000000000000000000000000002000075
:101D6C000000000000000001000100000000000065
:101D7C000000000000000000000000000000000057
:101D8C000000000100010001000100010001000140
:101D9C00000100010001000100010001000100012F
:101DAC00002E002F00240040002000496E6963695A
:101DBC0065206F206A6F676F004170657274616E89
:101DCC00646F2027572700566F63652047616E6844
:101DDC006F750053636F72652025640054696D65DF
:101DEC0020256400575320256400566F63652050EE
:081DFC006572646575210000A9
:00000001FF
